:100000000C9462000C948A000C948A000C948A0070
:100010000C948A000C948A000C948A000C948A0038
:100020000C948A000C948A000C948A000C948A0028
:100030000C948A000C948A000C948A000C948A0018
:100040000C94B8050C948A000C948A000C948A00D5
:100050000C948A000C948A000C948A000C948A00F8
:100060000C948A000C948A000000000024002700F1
:100070002A0000000000250028002B0000000000DE
:1000800023002600290004040404040404040202DA
:100090000202020203030303030301020408102007
:1000A0004080010204081020010204081020000012
:1000B0000008000201000003040700000000000027
:1000C00000005B0911241FBECFEFD8E0DEBFCDBF1B
:1000D00011E0A0E0B1E0E2E1F8E102C005900D928C
:1000E000A235B107D9F721E0A2E5B1E001C01D9228
:1000F000AF38B207E1F710E0C2E6D0E004C02197C4
:10010000FE010E94FC0BC136D107C9F70E9402060E
:100110000C94070C0C940000833081F028F481309B
:1001200099F08230A1F008958730A9F08830B9F0B5
:100130008430D1F4809180008F7D03C08091800055
:100140008F7780938000089584B58F7702C084B53F
:100150008F7D84BD08958091B0008F7703C080911A
:10016000B0008F7D8093B0000895CF93DF93282F48
:1001700030E0F901E255FF4F8491F901E656FF4F57
:10018000D491F901EA57FF4FC491CC2391F081112A
:100190000E948C00EC2FF0E0EE0FFF1FE458FF4FA1
:1001A000A591B491EC91ED2381E090E021F480E001
:1001B00002C080E090E0DF91CF9108951F93CF932C
:1001C000DF93282F30E0F901E255FF4F8491F901C8
:1001D000E656FF4FD491F901EA57FF4FC491CC2363
:1001E000C1F0162F81110E948C00EC2FF0E0EE0F71
:1001F000FF1FEE58FF4FA591B4919FB7F8941111CE
:1002000004C08C91D095D82302C0EC91DE2BDC93F6
:100210009FBFDF91CF911F910895CF93DF9390E01F
:10022000FC01E656FF4F2491FC01EA57FF4F8491F1
:10023000882361F190E0880F991FFC01E859FF4F76
:10024000C591D491FC01EE58FF4FA591B491611175
:1002500009C09FB7F8948881209582238883EC9108
:100260002E230BC0623061F49FB7F8948881322F3F
:10027000309583238883EC912E2B2C939FBF06C04F
:100280008FB7F894E8812E2B28838FBFDF91CF9111
:1002900008951F93CF93DF93182FEB0161E00E9425
:1002A0000D01209711F460E004C0CF3FD10539F46F
:1002B00061E0812FDF91CF911F910C94DE00E12F3F
:1002C000F0E0E255FF4FE491E330F9F048F4E1301B
:1002D000B9F0E230A1F584B5806284BDC8BD34C0F8
:1002E000E730E9F0E83019F1E43049F58091800019
:1002F000806280938000D0938B00C0938A0024C0DA
:1003000084B5806884BDC7BD1FC0809180008068AF
:1003100080938000D0938900C093880015C080919D
:10032000B00080688093B000C093B3000DC080918E
:10033000B00080628093B000C093B40005C0C038A4
:10034000D1050CF0B5CFAFCFDF91CF911F910895BC
:100350003FB7F8948091700190917101A091720162
:10036000B091730126B5A89B05C02F3F19F00196E7
:10037000A11DB11D3FBFBA2FA92F982F8827820F2B
:10038000911DA11DB11DBC01CD0142E0660F771F7B
:10039000881F991F4A95D1F708958F929F92AF9227
:1003A000BF92CF92DF92EF92FF926B017C010E948D
:1003B000A8014B015C01C114D104E104F104F1F086
:1003C0000E94A801DC01CB0188199909AA09BB097F
:1003D000883E9340A105B10570F321E0C21AD1080F
:1003E000E108F10888EE880E83E0981EA11CB11C7C
:1003F000C114D104E104F10419F7DDCFFF90EF90AF
:10040000DF90CF90BF90AF909F908F900895CF9244
:10041000DF92EF92FF920F931F93CF93DF936C01C4
:100420007A018B01C0E0D0E0CE15DF0581F0D80164
:100430006D918D01D601ED91FC910190F081E02D3F
:10044000C6010995892B11F02196EECF7E01C701D7
:10045000DF91CF911F910F91FF90EF90DF90CF90A0
:100460000895CF93DF93EC018A899CB59C7F282F58
:100470002370922B9CBD2DB582FB992790F9822F7A
:100480008E7F892B8DBD8C89811103C08CB58062D4
:1004900002C08CB58F7D8CBD8CB5837F9B89892BE9
:1004A0008CBD60E089890E94DE008F858EBD0000D2
:1004B0000DB407FEFDCF8EB561E08989DF91CF9144
:1004C0000C94DE00CF92DF92EF92FF92CF93DF93F6
:1004D000EC01888981110FC060E08E810E94DE00EE
:1004E00061E08E810E94DE0060E08E810E94DE006D
:1004F0008BE891E036C0C12CD12C7601C394D70192
:10050000C6010E8004C0880F991FAA1FBB1F0A9442
:10051000D2F780959F8589238F87CE010E94310273
:10052000D701C6010E8004C0880F991FAA1FBB1FE8
:100530000A94D2F72F85822B8F87CE010E94310239
:100540000E8004C0CC0CDD1CEE1CFF1C0A94D2F7FC
:10055000C0948F85C822CF86CE010E9431028BE9DC
:1005600090E00197F1F7DF91CF91FF90EF90DF904E
:10057000CF9008958F929F92AF92BF92CF92DF92C9
:10058000EF92FF920F931F93CF93DF93EC01888933
:10059000062F10E0811121C05E0187E0A80EB11C7A
:1005A000E12CF12C650161E0F50181915F010E9470
:1005B0000D01B8010E2C02C0759567950A94E2F7FB
:1005C0006170F60180810E94DE00FFEFEF1AFF0AE2
:1005D00084E0E816F10431F733C084E090E0812C28
:1005E000912C540183949C0124503109A80102C02C
:1005F000559547952A95E2F72F8540FF0DC0750167
:100600006401082E04C0CC0CDD1CEE1CFF1C0A94F7
:10061000D2F7C22ACF860DC0B501A401082E04C0AE
:10062000440F551F661F771F0A94D2F74095422347
:100630004F87019688309105B1F6CE010E943102B4
:10064000CE01DF91CF911F910F91FF90EF90DF903E
:10065000CF90BF90AF909F908F900C946202AF921A
:10066000BF92CF92DF92EF92FF920F931F93CF939F
:10067000DF93EC01F62E8889062F10E081113AC035
:10068000642F8C810E94DE008D818F3F19F060E025
:100690000E94DE008D8984FF50C05E0187E0A80EB5
:1006A000B11CE12CF12C650161E0F50181915F0144
:1006B0000E940D01B8010E2C02C0759567950A9431
:1006C000E2F76170F60180810E94DE00FFEFEF1A11
:1006D000FF0A88E0E816F10431F7CE01DF91CF91EF
:1006E0001F910F91FF90EF90DF90CF90BF90AF9050
:1006F0000C9462023C812F85442371F041E050E06C
:1007000060E070E004C0440F551F661F771F3A95E4
:10071000D2F7422B4F870EC081E090E0A0E0B0E01E
:1007200004C0880F991FAA1FBB1F3A95D2F7809566
:1007300082238F87CE010E943102B80184E0759533
:1007400067958A95E1F7CE010E94BA026F2DCE011E
:10075000DF91CF911F910F91FF90EF90DF90CF909D
:10076000BF90AF900C94BA0240E0682F84E791E00C
:100770000C942F03CF93DF93823028F0909189015E
:1007800098609093890180938D0110928E018BE384
:100790009DE00197F1F760E0809178010E94DE0012
:1007A00060E080917A010E94DE00809179018F3FA4
:1007B00019F060E00E94DE008091890184FD20C074
:1007C00063E084E791E00E94BA02CBE4D6E4CE0174
:1007D0000197F1F763E084E791E00E94BA02219764
:1007E000F1F763E084E791E00E94BA0283E592E0CA
:1007F0000197F1F762E084E791E00E94BA0215C028
:1008000080620E94B4038BE496E40197F1F7809133
:10081000890180620E94B40383E592E00197F1F7B9
:100820008091890180620E94B40380918901806275
:100830000E94B40384E080938A018CE00E94B40398
:1008400081E00E94B4038BE39FE10197F1F782E01E
:1008500080938B0186E0DF91CF910C94B403CF930A
:10086000DF93CDB7DEB728970FB6F894DEBF0FBE83
:10087000CDBF98E0EAE0F1E0DE01119601900D9223
:100880009A95E1F790918D01981710F48FEF890FE9
:10089000FE013196E80FF11DE80FF11D808180689F
:1008A00028960FB6F894DEBF0FBECDBFDF91CF9173
:1008B0000C94B40341E00E942F0381E090E008957E
:1008C000089580E090E00895009769F0FC010190A0
:1008D0000020E9F73197AF01481B590BBC0184E7B1
:1008E00091E00C94070280E090E008950C94640479
:1008F0008F929F92AF92BF920F931F93CF93DF93EC
:10090000CDB7DEB7A1970FB6F894DEBF0FBECDBF4F
:1009100019A2423008F44AE08E010F5D1F4F842E69
:10092000912CA12CB12CA50194010E949E09E62FC7
:10093000B901CA0101501109EA3014F4E05D01C0A7
:10094000E95CD801EC93232B242B252B61F7C801FC
:100950000E946404A1960FB6F894DEBF0FBECDBF0F
:10096000DF91CF911F910F91BF90AF909F908F908B
:100970000895CF92DF92EF92FF926C01990FEE08EB
:10098000FF08F7FE16C041E06DE284E791E00E94A7
:100990002F0366277727CB016C197D098E099F09E4
:1009A0004AE00E9478040196FF90EF90DF90CF908C
:1009B00008954AE0C701B601FF90EF90DF90CF9015
:1009C0000C9478048F929F92AF92BF92CF92DF9255
:1009D000EF92FF920F931F93CF93DF936B017C01F4
:1009E000142F9B01AC010E94F70B882319F08EE1B4
:1009F00091E027C046015701E894B7F82FEF3FEF89
:100A00004FE75FE7C501B4010E94F70B81110DC0EC
:100A10002FEF3FEF4FE75FE7C501B4010E942D0ABA
:100A200018161CF482E291E00CC02FEF3FEF4FE765
:100A30005FE4C701B6010E94850B181684F486E2B4
:100A400091E0DF91CF911F910F91FF90EF90DF9098
:100A5000CF90BF90AF909F908F900C9464042FEF35
:100A60003FEF4FE75FECC701B6010E942D0A87FDFB
:100A7000E6CF20E030E0A901C701B6010E942D0AAF
:100A800087FF0DC041E06DE284E791E00E942F03F3
:100A9000F7FAF094F7F8F094C1E0D0E002C0C0E0BB
:100AA000D0E000E060E070E080E09FE3101741F0EC
:100AB00020E030E040E251E40E94320A0F5FF6CFBE
:100AC000A70196010E94C1096B017C010E94A40A42
:100AD0004B015C014AE00E947804C80FD91F112322
:100AE000B9F1C501B4010E94D30A9B01AC01C70151
:100AF000B6010E94C0096B017C0141E06EE284E70F
:100B000091E00E942F03219620E030E040E251E482
:100B1000C701B6010E948A0B4B015C010E94A40A26
:100B20006B01E12CF12C4AE0C701B6010E94780468
:100B3000C80FD91FC701B6010E94D30A9B01AC019F
:100B4000C501B4010E94C0096B017C011150E1F69E
:100B5000CE01DF91CF911F910F91FF90EF90DF9029
:100B6000CF90BF90AF909F908F9008950E94020CFD
:100B70001F920F920FB60F9211242F933F938F93D2
:100B80009F93AF93BF9380916C0190916D01A09161
:100B90006E01B0916F0130916B0123E0230F2D376F
:100BA00020F40196A11DB11D05C026E8230F029671
:100BB000A11DB11D20936B0180936C0190936D0179
:100BC000A0936E01B0936F018091700190917101BB
:100BD000A0917201B09173010196A11DB11D809386
:100BE000700190937101A0937201B0937301BF9152
:100BF000AF919F918F913F912F910F900FBE0F90CA
:100C00001F901895789484B5826084BD84B5816006
:100C100084BD85B5826085BD85B5816085BD8091C7
:100C20006E00816080936E0010928100809181003F
:100C30008260809381008091810081608093810037
:100C4000809180008160809380008091B1008460F9
:100C50008093B1008091B00081608093B00080915A
:100C60007A00846080937A0080917A008260809319
:100C70007A0080917A00816080937A0080917A0076
:100C8000806880937A001092C10082E00E94BA03CB
:100C900062E080E00E940D0162E081E00E940D01AF
:100CA00064E670E089E00E94490168E770E08AE04C
:100CB0000E9449012FB7F89480916C0190916D01C9
:100CC000A0916E01B0916F012FBF80935A01909354
:100CD0005B01A0935C01B0935D0140E0242E40E0F5
:100CE000342EAA24A394B12CC6E9D0E082E00E945D
:100CF000BA0380E00E942F048AE291E00E94760409
:100D000080910801909109010A9724F480E391E011
:100D10000E94760480910801909109010E94B90413
:100D200082E391E00E947604809106019091070190
:100D30000A9724F480E391E00E94760480910601F2
:100D4000909107010E94B90482E391E00E94760429
:100D500080910401909105010A9724F480E391E0C9
:100D60000E94760480910401909105010E94B904CB
:100D70008091020190910301892B21F484E391E099
:100D80000E9476048091020190910301019721F461
:100D900088E391E00E94760481E00E942F04109283
:100DA0006601109267011092680110926901109219
:100DB0006A0161E08EE00E940D0160E08EE00E9419
:100DC000DE0064E170E080E090E00E94CD0161E02F
:100DD0008EE00E94DE008BE990E00197F1F760E081
:100DE0008EE00E940D0101E117E28EE00E94B50045
:100DF000892B21F401501109C1F773C001E117E2F9
:100E00008EE00E94B500019721F401501109C1F74D
:100E100068C008E210E037E0D32EC12C21E1E22EB9
:100E200027E2F22E8EE00E94B500892B29F481E0A2
:100E3000E81AF108B9F755C00E94A8012B013C013E
:100E400091E1E92E97E2F92E8EE00E94B50001971C
:100E500029F481E0E81AF108B9F743C00E94A8011B
:100E6000DC01CB0184199509A609B7098997A10569
:100E7000B10570F0EC2DF0E0E25AFE4F208581E0E4
:100E800090E00D2C01C0880F0A94EAF7822B80872E
:100E9000D11004C0C39487E0D82E01C0DA94015069
:100EA000110909F0BBCF6091660170E080E090E02D
:100EB0000E94D30A60935E0170935F01809360018A
:100EC000909361016091680170E080E090E00E9481
:100ED000D30A6093620170936301809364019093DD
:100EE00065018CE391E00E9476046091620170914B
:100EF0006301809164019091650142E00E94E204E7
:100F000041E06FED84E791E00E942F0383E491E0DC
:100F10000E94760468EE73E080E090E00E94CD01CC
:100F200081E00E942F0485E491E00E9476046091A4
:100F30005E0170915F01809160019091610142E0DA
:100F40000E94E20480E591E00E94760468EE73E07E
:100F500080E090E00E94CD0105E010E080915A0110
:100F600090915B01A0915C01B0915D0140915601AF
:100F70005091570160915801709159016C017D01A8
:100F8000C41AD50AE60AF70AB701A601483C51057A
:100F900061057105A0F42FB7F89480916C019091D0
:100FA0006D01A0916E01B0916F012FBF80935A0126
:100FB00090935B01A0935C01B0935D01CFCF8093D0
:100FC000560190935701A0935801B093590180E0C6
:100FD0000E94B5006C01909355018093540181E00B
:100FE0000E94B5007C019093530180935201809040
:100FF000000190900101C401019790930101809339
:101000000001892B49F460E070E08AE00E94490108
:10101000909201018092000191E0C114D10409F085
:1010200090E081E0E114F10409F080E0992E982A23
:101030008091000190910101019739F5992029F1E2
:10104000D0930101C093000168E770E08AE00E943C
:1010500049018091540190915501892B39F080917B
:10106000520190915301892B09F0D2C080E00E9477
:10107000B500909355018093540181E00E94B50022
:101080009093530180935201E4CFCD2891F4809145
:10109000080190910901019690930901809308013C
:1010A000D0930101C093000168E770E08AE00E94DC
:1010B0004901EF28B1F410920501109204018091CA
:1010C0000601909107010196909307018093060114
:1010D000D0930101C093000168E770E08AE00E94AC
:1010E00049018091040190910501CC9769F4109217
:1010F000050110920401809106019091070101966B
:101100009093070180930601809106019091070159
:10111000CC9769F4109207011092060180910801A2
:1011200090910901019690930901809308018091A3
:101130000801909109010D97A9F4B0920901A092BC
:10114000080180910201909103010196823091057E
:1011500029F0909303018093020104C010920301CF
:1011600010920201992009F453C080E00E942F04DC
:101170008AE291E00E947604809108019091090131
:101180000A9724F480E391E00E947604809108019C
:10119000909109010E94B90482E391E00E947604D3
:1011A00080910601909107010A9724F480E391E071
:1011B0000E94760480910601909107010E94B90473
:1011C00082E391E00E9476048091040190910501F0
:1011D0000A9724F480E391E00E9476048091040150
:1011E000909105010E94B904809102019091030140
:1011F000892B21F484E391E00E947604809102011E
:1012000090910301019721F488E391E00E94760414
:101210000150110909F0A2CE8091040190910501BD
:1012200001968C33910529F0909305018093040178
:101230000DC0109205011092040180910601909159
:1012400007010196909307018093060180910601A2
:1012500090910701CC9769F4109207011092060152
:101260008091080190910901019690930901809362
:10127000080180910801909109010D97A9F4B0929D
:101280000901A09208018091020190910301019649
:101290008230910529F0909303018093020104C0EC
:1012A00010920301109202012114310409F41ECDA1
:1012B0000E9400001BCD109277011092760186E10A
:1012C00091E0909375018093740182E0809378019E
:1012D0008FEF8093790183E080937A0184E080939B
:1012E0007B0185E080937C0186E080937D0187E02F
:1012F00080937E0110927F011092800110928101F3
:101300001092820161E082E00E940D0180917901DA
:101310008F3F19F061E00E940D0161E080917A0138
:101320000E940D011092890181E00E94BA03809110
:101330008401811102C0109284010895A1E21A2E45
:10134000AA1BBB1BFD010DC0AA1FBB1FEE1FFF1F69
:10135000A217B307E407F50720F0A21BB30BE40BB9
:10136000F50B661F771F881F991F1A9469F7609500
:101370007095809590959B01AC01BD01CF010895BA
:101380005058BB27AA270E94D8090C944B0B0E94E7
:101390003D0B38F00E94440B20F039F49F3F19F4C4
:1013A00026F40C943A0B0EF4E095E7FB0C94340B06
:1013B000E92F0E945C0B58F3BA1762077307840782
:1013C000950720F079F4A6F50C947E0B0EF4E095C9
:1013D0000B2EBA2FA02D0B01B90190010C01CA01EF
:1013E000A0011124FF27591B99F0593F50F4503E9A
:1013F00068F11A16F040A22F232F342F4427585F8C
:10140000F3CF469537952795A795F0405395C9F7A3
:101410007EF41F16BA0B620B730B840BBAF091505B
:10142000A1F0FF0FBB1F661F771F881FC2F70EC0FA
:10143000BA0F621F731F841F48F4879577956795CD
:10144000B795F7959E3F08F0B0CF9395880F08F0B9
:101450009927EE0F9795879508950E94100B08F431
:1014600081E008950E94460A0C944B0B0E94440BA5
:1014700058F00E943D0B40F029F45F3F29F00C9496
:10148000340B51110C947F0B0C943A0B0E945C0BA3
:1014900068F39923B1F3552391F3951B550BBB27A3
:1014A000AA2762177307840738F09F5F5F4F220FE8
:1014B000331F441FAA1FA9F335D00E2E3AF0E0E8DF
:1014C00032D091505040E695001CCAF72BD0FE2F29
:1014D00029D0660F771F881FBB1F261737074807BD
:1014E000AB07B0E809F0BB0B802DBF01FF27935875
:1014F0005F4F3AF09E3F510578F00C94340B0C94FA
:101500007F0B5F3FE4F3983ED4F38695779567951C
:10151000B795F7959F5FC9F7880F911D96958795A9
:1015200097F90895E1E0660F771F881FBB1F6217C8
:1015300073078407BA0720F0621B730B840BBA0B86
:10154000EE1F88F7E09508950E94640B88F09F577E
:1015500098F0B92F9927B751B0F0E1F0660F771FD7
:10156000881F991F1AF0BA95C9F714C0B13091F0CD
:101570000E947E0BB1E008950C947E0B672F782FAC
:101580008827B85F39F0B93FCCF386957795679592
:10159000B395D9F73EF490958095709561957F4FFE
:1015A0008F4F9F4F0895E89409C097FB3EF49095A4
:1015B0008095709561957F4F8F4F9F4F9923A9F02C
:1015C000F92F96E9BB279395F695879577956795BB
:1015D000B795F111F8CFFAF4BB0F11F460FF1BC0FF
:1015E0006F5F7F4F8F4F9F4F16C0882311F096E992
:1015F00011C0772321F09EE8872F762F05C0662340
:1016000071F096E8862F70E060E02AF09A95660FF8
:10161000771F881FDAF7880F9695879597F90895B1
:10162000990F0008550FAA0BE0E8FEEF16161706F3
:10163000E807F907C0F012161306E407F50798F05B
:10164000621B730B840B950B39F40A2661F0232B74
:10165000242B252B21F408950A2609F4A140A695F0
:101660008FEF811D811D089597F99F6780E870E0D5
:1016700060E008959FEF80EC089500240A94161608
:10168000170618060906089500240A941216130670
:10169000140605060895092E0394000C11F48823FE
:1016A00052F0BB0F40F4BF2B11F460FF04C06F5F1A
:1016B0007F4F8F4F9F4F089557FD9058440F551FF0
:1016C00059F05F3F71F04795880F97FB991F61F0C4
:1016D0009F3F79F087950895121613061406551F3B
:1016E000F2CF4695F1DF08C0161617061806991FA7
:1016F000F1CF86957105610508940895E894BB279C
:1017000066277727CB0197F908950E94100B08F4FC
:101710008FEF08950E949D0B0C944B0B0E943D0B84
:1017200038F00E94440B20F0952311F00C94340BF8
:101730000C943A0B11240C947F0B0E945C0B70F3F9
:10174000959FC1F3950F50E0551F629FF001729F66
:10175000BB27F00DB11D639FAA27F00DB11DAA1F75
:10176000649F6627B00DA11D661F829F2227B00DC2
:10177000A11D621F739FB00DA11D621F839FA00D4D
:10178000611D221F749F3327A00D611D231F849F9D
:10179000600D211D822F762F6A2F11249F575040F4
:1017A0009AF0F1F088234AF0EE0FFF1FBB1F661F6F
:1017B000771F881F91505040A9F79E3F510580F038
:1017C0000C94340B0C947F0B5F3FE4F3983ED4F3FE
:1017D000869577956795B795F795E7959F5FC1F7DC
:1017E000FE2B880F911D9695879597F908950E9475
:1017F000100B880B990B0895EE0FFF1F0590F491C5
:10180000E02D099481E090E0F8940C94070CF89492
:02181000FFCF08
:10181200960001002D003B000C0000004000140067
:101822005400000000005A040702610460046E6163
:101832006E00696E66006F76660054696D65200001
:1018420030003A0020414D0020504D0054656D702B
:101852003A2000430048756D69646974793A200042
:0218620025005F
:107E0000112484B714BE81FFF0D085E080938100F7
:107E100082E08093C00088E18093C10086E0809377
:107E2000C20080E18093C4008EE0C9D0259A86E02C
:107E300020E33CEF91E0309385002093840096BBD3
:107E4000B09BFECF1D9AA8958150A9F7CC24DD24C4
:107E500088248394B5E0AB2EA1E19A2EF3E0BF2EE7
:107E6000A2D0813461F49FD0082FAFD0023811F036
:107E7000013811F484E001C083E08DD089C08234E0
:107E800011F484E103C0853419F485E0A6D080C0E4
:107E9000853579F488D0E82EFF2485D0082F10E0AE
:107EA000102F00270E291F29000F111F8ED06801E7
:107EB0006FC0863521F484E090D080E0DECF843638
:107EC00009F040C070D06FD0082F6DD080E0C81688
:107ED00080E7D80618F4F601B7BEE895C0E0D1E017
:107EE00062D089930C17E1F7F0E0CF16F0E7DF06D8
:107EF00018F0F601B7BEE89568D007B600FCFDCFD4
:107F0000A601A0E0B1E02C9130E011968C91119780
:107F100090E0982F8827822B932B1296FA010C0160
:107F200087BEE89511244E5F5F4FF1E0A038BF0790
:107F300051F7F601A7BEE89507B600FCFDCF97BE46
:107F4000E89526C08437B1F42ED02DD0F82E2BD052
:107F50003CD0F601EF2C8F010F5F1F4F84911BD097
:107F6000EA94F801C1F70894C11CD11CFA94CF0C13
:107F7000D11C0EC0853739F428D08EE10CD085E9AC
:107F80000AD08FE07ACF813511F488E018D01DD067
:107F900080E101D065CF982F8091C00085FFFCCF94
:107FA0009093C60008958091C00087FFFCCF809118
:107FB000C00084FD01C0A8958091C6000895E0E648
:107FC000F0E098E1908380830895EDDF803219F02E
:107FD00088E0F5DFFFCF84E1DECF1F93182FE3DFCA
:107FE0001150E9F7F2DF1F91089580E0E8DFEE27F6
:047FF000FF270994CA
:027FFE00040479
:0400000300007E007B
:00000001FF
